:10100200E4F508120D1E1210C31210BC7580FFE425
:09101200F5A0AF08120ABE80F936
:100D1E007F0F7E00120FC27B08E4FD7F30120EBFE4
:100D2E00120FBE7B08E4FD7F30120EBF7F017E00E6
:100D3E00120FC27B08E4FD7F30120EBF7B08E4FD6C
:100D4E007F20120EBF1210747B04E4FD7F28120E5A
:100D5E00BF1210747B04E4FD7F08120EBF121074D4
:100D6E00120EB91210747B04E4FD7F06120EBF1230
:100D7E0010747B04E4FD7F02120EBF1210747B040C
:070D8E00E4FD7F0C020EBF23
:0610C300120EB9021074C8
:10104B00EF75F028A42D24D74480FF7B04E4FD1218
:05105B000EBF0210743D
:0A106000851182851083120A2EFF0D
:0A106A007B047D01120EBF0210741A
:040FBE007F057E002D
:100FC200E4FDFCC3ED9FEC9E5015E4FBFA0BBB0065
:0F0FD200010AEB64F04A70F50DBD00010C80E4DC
:010FE10022ED
:060EB9007B04E4FD7F0153
:100EBF00ED3395E04D7004C2B28002D2B2C2B1EBF5
:100ECF00FD3395E0FCED64044C701DEF54F0FEE52E
:100EDF00B0540F4EF5B0D2B0C2B0EFC454F0FFE52E
:0F0EEF00B0540F4FF5B080028FB0D2B0C2B02216
:10107400D2B7C2B2D2B1D2B020B7FDC2B0C2B1228F
:060E60008B0A8A0B890CCD
:100E66007D017F0112104BE4F510F511AB0AAA0BB8
:100E7600A90C121060120FBE0511E51170020510C3
:100E8600C39410E510940040E37D017F0212104BDD
:100E9600E4F510F511AB0DAA0EA90F121060120F92
:100EA600BE0511E51170020510C39410E5109400FB
:020EB60040E317
:010EB8002217
:100FE200E4FDFCC3ED9FEC9E5015E4FBFA0BBB0045
:0F0FF200010AEB64F04A70F50DBD00010C80E4BC
:0110010022CC
:0910AA00A20292A0A20392A1226D
:0910B300A20192A5A20092A42260
:100EFE00A907E964017014D202D2031210AAD2A279
:100F0E00C2A37F887E13120FE28020E96402701460
:100F1E00D202D2031210AAC2A2D2A37F887E1312CB
:100F2E000FE28007C202C2031210AAC2A2C2A322FB
:0710BC0075C35043C310226D
:0A10A0008FC5E5C430E7FBAFC522A1
:100F9700EF5403C454F04480FEC2917F011210A0A5
:100FA700AF061210A0AE07E4FF1210A0AD07D29152
:060FB700EE541FFEEDFFE9
:010FBD002211
:040F6D00AB07AA061E
:100F7100E4F515F5147513A0751240AD07AC061212
:100F810009ABAB15AA14A913A812120800E4FBFAC5
:060F9100F978460209098F
:100E00004D454E552020202020202020202020202D
:100E10003C2D2020202020202020202020202D3E7E
:100E200054454D503A2020204D41582E543A202010
:100E300048554D3A202020204D494E2E483A20203A
:100E40004D4F544F522020202020202020202020B1
:100E500056454E54494C41444F52202020202020DA
:100D9500015700015E00012100015800022200F503
:100DA500025A0140102720202E20432020202020F9
:100DB5002E2043202020025C00F50224014010373C
:100DC50020202E202520202020202E2025202020F8
:100DD5000126001047202020202020202020202030
:100DE5002020202020015900105F202020202020D5
:0A0DF50020202020202020202020B4
:100F3E00AB07AA067C007D64120A5B8F5E7C007D87
:100F4E000AAF03AE02120A5B7C007D0A120A5B8DA9
:0F0F5E0021AE02AF037C007D0A120A5B8D582280
:10101B00208409055BE55B700E055A22208308E5E9
:08102B005B155B7002155A22EF
:101033002084090525E525700E052422208308E573
:08104300251525700215242279
:0E1084002081020559E55964047002F55922D5
:0E1092002081020526E52664047002F5262260
:100ABE008F0920820C0557E55764057011F5578094
:100ACE000D2080111557E557F470037557047FC834
:100ADE007E00120FE2E5577012750DFF750E0E7542
:100AEE000F107BFF7A0E7900020C88E557640170B7
:100AFE004712101BAF097E00120F3EE55E2430F543
:100B0E0027E5212430F528E5582430F52AAF5BAED1
:100B1E005A120F3EE55E2430F52FE5212430F530D4
:100B2E00E5582430F532750D00750E00750F277BD4
:100B3E00FF7A0E7920020C88E55764027047121076
:100B4E0033AF5DAE5C120F3EE55E2430F537E52126
:100B5E002430F538E5582430F53AAF25AE24120F7F
:100B6E003EE55E2430F53FE5212430F540E558247E
:100B7E0030F542750D00750E00750F377BFF7A0E3E
:100B8E007930020C88E55764036003020C3E1210A4
:100B9E0092E526702575474F754846754946754A44
:100BAE0020F50D750E00750F477BFF7A0E794012FA
:100BBE000E60E4FF120EFE020C8BE526640170211E
:100BCE00754755754850754920754A20F50D750EB7
:100BDE0000750F477BFF7A0E7940120E607F018001
:100BEE0025E5266402702775474475484F754957A9
:100BFE00754A4EF50D750E00750F477BFF7A0E790F
:100C0E0040120E607F02120EFEE4F526806FE5267E
:100C1E0064037069754741754855754954754A4F57
:100C2E00F50D750E00750F477BFF7A0E7940804AE1
:100C3E00E55764047047121084AF597E00EF700BB5
:100C4E0075604F7561467562468020EF64014E7087
:100C5E000B75604F75614E756220800FEF64024E0A
:100C6E007009756041756155756254750D00750E8C
:100C7E0000750F5F7BFF7A0E7950120E607F647ED7
:040C8E0000020FE26F
:10080000EC4D6011E8497017ED33EC3304600DE4F2
:10081000FCFFFEFD22E933E8330470F8020A1912E6
:1008200009E458046009E4CC2481500628500902E8
:100830000A23284003020A20C0E0EB4A7044B98032
:1008400006D0E0FB020A0FEF4E701CBD8008EBFFE4
:10085000EAFEE9FD80EBE98DF0A4FEE5F00208E98F
:10086000E9CDF9EAFEEBFFEF89F0A4FCE5F0CE89D3
:10087000F0A42EFFE435F0CD89F0A42DFEE435F090
:100880008067EF4E7005BD80D780C3EF8BF0A4ACBE
:10089000F0EE8BF0A42CFCE435F0F8EF8AF0A42CF9
:1008A000E5F038FCE433CB8DF0A42CFCE5F03BF80C
:1008B000EE8AF0A42CFCE5F038F8E433CF89F0A4FC
:1008C0002CFCE5F038CF3400CE89F0A42FFFE5F002
:1008D0003EFEE433C98DF0A42EFEE5F039CD8AF05A
:1008E000A42FFFE5F03EFEE43DFD33D0E0FB5007D2
:1008F0000BBB000F020A23EC2CFCEF33FFEE33FEA0
:06090000ED33FD0209FBCE
:10090600020A23EC5D046005E859047003020A1923
:100916001209E4580460F6EC4860F2EC7004FDFE3F
:10092600FF22C860DB2481C85009C39860025006C4
:10093600020A209850CAF582E9294B4A7005AB8213
:10094600020A0F75F0007C1A7880C3EF9BEE9AEDD1
:1009560099400DC3EF9BFFEE9AFEED99FDE842F03C
:10096600DC23ACF0D0E0FFD0E0FED0E0FDAB82208F
:10097600E7101BEB60BAEC2CFCEF33FFEE33FEED19
:1009860033FD0209FBE803F830E705C0F075F00017
:10099600EF2FFFEE33FEED33FD40B830E7C280AAFD
:1009A60075F020800E75F010800575F0087D007ECC
:1009B600007F003392D530D503120AB0EC334010D5
:1009C600EF33FFEE33FEED33FDEC33FCD5F0ED22D5
:0E09D600E5F0247EA2D513CC92E7CDCEFF2211
:1009E400E9D2E7C933E833F892D5EDD2E7CD33EC59
:0709F40033FC5002B2D522D2
:1009FB00EC30E7100FBF000C0EBE00080DBD00045D
:100A0B000BEB6014A2D5EB13FCED92E7FD2274FF08
:100A1B00FCFDFEFF22E480F8A2D574FF13FC7D8061
:030A2B00E480EF75
:03000000020C925D
:0C0C9200787FE4F6D8FD75816E020CD965
:100A2E00BB010CE58229F582E5833AF583E022507D
:100A3E0006E92582F8E622BBFE06E92582F8E222C7
:0D0A4E00E58229F582E5833AF583E49322E1
:100A5B00BC000BBE0029EF8DF084FFADF022E4CC7F
:100A6B00F875F008EF2FFFEE33FEEC33FCEE9DEC48
:100A7B00984005FCEE9DFE0FD5F0E9E4CEFD22ED8E
:100A8B00F8F5F0EE8420D21CFEADF075F008EF2FD8
:100A9B00FFED33FD4007985006D5F0F222C398FDC9
:050AAB000FD5F0EA2266
:0E0AB000C3E49FFFE49EFEE49DFDE49CFC2257
:100C9E00021002E493A3F8E493A34003F68001F25A
:100CAE0008DFF48029E493A3F85407240CC8C33357
:100CBE00C4540F4420C8834004F456800146F6DF26
:100CCE00E4800B0102040810204080900D95E47E14
:100CDE00019360BCA3FF543F30E509541FFEE4931B
:100CEE00A360010ECF54C025E060A840B8E493A3E2
:100CFE00FAE493A3F8E493A3C8C582C8CAC583CA0D
:100D0E00F0A3C8C582C8CAC583CADFE9DEE780BEC4
:010DFF0000F3
:00000001FF
