:101336001210371214207580FFE4F5A0F5901214F0
:0F1346000F7F011214188E088F09120C6680F2A7
:101037007F0F7E001212F67B08E4FD7F301211DC71
:101047001212F27B08E4FD7F301211DC7F017E0073
:101057001212F67B08E4FD7F301211DC7B08E4FDF9
:101067007F201211DC1213CB7B04E4FD7F281211C1
:10107700DC1213CB7B04E4FD7F081211DC1213CBC7
:101087001211D61213CB7B04E4FD7F061211DC127A
:1010970013CB7B04E4FD7F021211DC1213CB7B041C
:0710A700E4FD7F0C0211DCE7
:061420001211D60213CBED
:1013A200EF75F028A42D24D74480FF7B04E4FD12BE
:0513B20011DC0213CB69
:0A13B700851382851283120BD6FF06
:0A13C1007B047D011211DC0213CB46
:0412F2007F057E00F6
:1012F600E4FDFCC3ED9FEC9E5015E4FBFA0BBB002E
:0F130600010AEB64F04A70F50DBD00010C80E4A4
:0113150022B5
:0611D6007B04E4FD7F0133
:1011DC00ED3395E04D7004C2B28002D2B2C2B1EBD5
:1011EC00FD3395E0FCED64044C701DEF54F0FEE50E
:1011FC00B0540F4EF5B0D2B0C2B0EFC454F0FFE50E
:0F120C00B0540F4FF5B080028FB0D2B0C2B022F5
:1013CB00D2B7C2B2D2B1D2B020B7FDC2B0C2B12235
:06117D008B0C8A0D890EA7
:101183007D017F011213A2E4F512F513AB0CAA0D36
:10119300A90E1213B71212F20513E513700205120A
:1011A300C39410E512940040E37D017F021213A261
:1011B300E4F512F513AB0FAA10A9111213B712120B
:1011C300F20513E51370020512C39410E51294009F
:0211D30040E3F7
:0111D50022F7
:10131600E4FDFCC3ED9FEC9E5015E4FBFA0BBB000D
:0F132600010AEB64F04A70F50DBD00010C80E484
:011335002295
:09140600A20092A0A20192A12211
:10121B00A907E964017014D200D201121406D2A2FC
:10122B00C2A37F887E131213168020E96402701408
:10123B00D200D201121406C2A2D2A37F887E13124F
:10124B0013168007C200C201121406C2A2C2A32247
:10111D004D454E552020202020202020202020200D
:10112D003C2D2020202020202020202020202D3E5E
:10113D0054454D503A2020204D41582E543A2020F0
:10114D0048554D3A202020204D494E2E483A20201A
:10115D004D4F544F52202020202020202020202091
:10116D0056454E54494C41444F52202020202020BA
:1010AE00015700016000012100015800025A0000A2
:1010BE00022200F5025C0140102720202E20432042
:1010CE00202020202E2043202020025E00F5022426
:1010DE000140103720202E202520202020202E20D9
:1010EE00252020200126001047202020202020200F
:1010FE0020202020202020202001590010612020B7
:0E110E00202020202020202020202020202013
:080F01008F1B8E1A8D198C184C
:100F09007F0A7ED77D237C3CAB1BAA1AA919A81896
:100F1900120A9E60025008E4FFFE7DA07CC022E414
:100F2900FFFE7D807C3FAB1BAA1AA919A8181208DD
:100F390007C004C005C006C007E4FFFE7D807CBF72
:100F4900AB1BAA1AA919A818120807D003D002D0F6
:100F590001D000120A018F1F8E1E8D1D8C1CA80442
:100F6900A905AA06AB071208F8E4FBFA794078400C
:100F7900120A01E4FBFA7980783F120807C004C01D
:100F890005C006C007E4FFFEFD7C40AB1FAA1EA9F1
:100F99001DA81C1208F8D003D002D001D0001208F5
:010FA900F84F
:010FAA002224
:100E4300751D33751C33751BA3751A401213558F0B
:100E53000F8E0E8D0D8C0CAB0FAA0EA90DA80C7F57
:100E6300337E337DA37C40120803C004C005C00653
:100E7300C0077F007E407D1C7C46AB0FAA0EA90DE8
:100E8300A80C1208F8D003D002D001D000120A0136
:100E93007B007A40791C7846120A01120F018F13E6
:100EA3008E128D118C107F307E997D837C39AB132C
:100EB300AA12A911A8101208F87B0F7ACF795B78D0
:100EC3003B120807A804A905AA06AB07E4FFFE7DA9
:100ED300807C3F120A018F178E168D158C147F3379
:100EE3007E937D887CC3AB17AA16A915A814120894
:0E0EF30007E4FBFA792078411208F8020B554B
:1012C300AB07AA067C007D64120C038F607C007D53
:1012D3000AAF03AE02120C037C007D0A120C038DCD
:0F12E30021AE02AF037C007D0A120C038D58224E
:10137200208409055DE55D700E055C22208308E589
:081382005D155D7002155C228F
:10138A002084090525E525700E052422208308E519
:08139A0025152570021524221F
:0E13EA002081020559E55964047002F559226C
:0E13F8002081020526E52664047002F52622F7
:100C66008E0A8F0B20820C0557E55764057011F527
:100C760057800D2080111557E557F47003755704FA
:100C86007FC87E00121316E5577012750FFF751098
:100C96001175112D7BFF7A11791D020E39E5576406
:100CA60001704E121372AF0BAE0A120E438E5A8F9C
:100CB6005B1212C3E5602430F527E5212430F528C0
:100CC600E5582430F52AAF5DAE5C1212C3E5602408
:100CD60030F52FE5212430F530E5582430F532750E
:100CE6000F007510007511277BFF7A11793D020EF2
:100CF60039E5576402704712138AAF5FAE5E12126F
:100D0600C3E5602430F537E5212430F538E558246D
:100D160030F53AAF25AE241212C3E5602430F53F14
:100D2600E5212430F540E5582430F542750F00756D
:100D360010007511377BFF7A11794D020E39E55790
:100D460064036003020DEF1213F8E526702575475C
:100D56004F754846754946754A20F50F751000755A
:100D660011477BFF7A11795D12117DE4FF12121B88
:100D7600020E3CE52664017021754755754850758D
:100D86004920754A20F50F7510007511477BFF7ACB
:100D960011795D12117D7F018025E5266402702799
:100DA60075474475484F754957754A4EF50F751086
:100DB600007511477BFF7A11795D12117D7F021252
:100DC600121BE4F526806FE52664037069754741BA
:100DD600754855754954754A4FF50F7510007511CC
:100DE600477BFF7A11795D804AE5576404704712A4
:100DF60013EAAF597E00EF700B75624F7563467547
:100E060064468020EF64014E700B75624F75634E29
:100E1600756420800FEF64024E7009756241756338
:100E260055756454750F007510007511617BFF7A56
:0D0E360011796D12117D7F0A7E00021316E6
:09140F00D294C296C297D2952234
:03142600000022A1
:0F13DB00EF24FF9297D296121426C29602142680
:02129200AE07A5
:10129400E4FD7C07EC3395E0C364809480401DA892
:1012A40004EE088002C313D8FC5401FF1213DBEDD3
:0E12B40025E0FDA295E43342051C80D8AF056D
:0112C2002209
:10125B00EF54034418FFC2941212928F0AE4FF1248
:10126B0012928F0BE4FF1212928F0CD294E50B5457
:10127B003FFF7E007806C333CE33CED8F9FFE50CA3
:06128B001313543F42075B
:01129100223A
:0814180012125BEE540FFE22DC
:10135500AD07AC06E4120B1CAB1DAA1CA91BA81AF1
:0D1365001208F8E4FBFA79807845020A01CD
:10080000020BC1E86480F8E933E83360110460F05A
:10081000ED33EC337009E8FCE9FDEAFEEBFF22045E
:1008200060DED3EB9FEA9EE99DE8C2E78CF0C2F759
:1008300095F0400CE8CCF8E9CDF9EACEFAEBCFFB25
:10084000120B8C85D0F05804700320D5B3E80470E7
:10085000075002B2D5020BCB92D5EC0460F7E4CC82
:10086000C0E0C398F8603B94186008400DD0E0FBEE
:10087000020BA3E4FBFAC9FC8028E830E406E4C9D3
:10088000FBE4CAFCE830E305E4C9CACBFCE8540742
:100890006010F8C3E913F9EA13FAEB13FBEC13FC4D
:1008A000D8F130F52FC3E49CFCEF9BFFEE9AFEEDF0
:1008B00099FDD0E0FBEF4E4D4C701222DB03020B92
:1008C000C8EC2CFCEF33FFEE33FEED33FDED30E7EB
:1008D000EB020BA3EF2BFFEE3AFEED39FDD0E0FB70
:1008E00050130BBB0003020BCBED13FDEE13FEEF19
:0808F00013FFEC13FC020BA343
:1008F800EC4D6011E8497017ED33EC3304600DE4FA
:10090800FCFFFEFD22E933E8330470F8020BC11244
:100918000B8C58046009E4CC248150062850090245
:100928000BCB284003020BC8C0E0EB4A7044B980E7
:1009380006D0E0FB020BB7EF4E701CBD8008EBFF42
:10094800EAFEE9FD80EBE98DF0A4FEE5F00209E19D
:10095800E9CDF9EAFEEBFFEF89F0A4FCE5F0CE89DA
:10096800F0A42EFFE435F0CD89F0A42DFEE435F097
:100978008067EF4E7005BD80D780C3EF8BF0A4ACC5
:10098800F0EE8BF0A42CFCE435F0F8EF8AF0A42C00
:10099800E5F038FCE433CB8DF0A42CFCE5F03BF813
:1009A800EE8AF0A42CFCE5F038F8E433CF89F0A403
:1009B8002CFCE5F038CF3400CE89F0A42FFFE5F009
:1009C8003EFEE433C98DF0A42EFEE5F039CD8AF061
:1009D800A42FFFE5F03EFEE43DFD33D0E0FB5007D9
:1009E8000BBB000F020BCBEC2CFCEF33FFEE33FEFE
:0609F800ED33FD020BA32C
:1009FE00020BCBEC5D046005E859047003020BC1D9
:100A0E00120B8C580460F6EC4860F2EC7004FDFE9C
:100A1E00FF22C860DB2481C85009C39860025006CB
:100A2E00020BC89850CAF582E9294B4A7005AB8271
:100A3E00020BB775F0007C1A7880C3EF9BEE9AED2F
:100A4E0099400DC3EF9BFFEE9AFEED99FDE842F043
:100A5E00DC23ACF0D0E0FFD0E0FED0E0FDAB822096
:100A6E00E7101BEB60BAEC2CFCEF33FFEE33FEED20
:100A7E0033FD020BA3E803F830E705C0F075F00074
:100A8E00EF2FFFEE33FEED33FD40B830E7C280AA04
:100A9E0074F8CC6480CCC86480C8F58204604FC3FF
:100AAE00EB9FF5F0EA9E42F0E99D42F0E89C45F09E
:100ABE00603C501DE5825FFFE582D313CB5BCBF428
:100ACE002B5582FB50280ABA002409B90020088051
:100ADE001DE5825BFBE582D313CF5FCFF4C3132FEB
:100AEE005582FF50090EBE00050DBD00010CC3EB73
:100AFE009FF5F0EA9E42F0E99D42F0E89C45F060D9
:090B0E0007CC4820E701B3EC22FA
:100B170075F020800E75F010800575F0087D007E59
:100B2700007F003392D530D503120C58EC334010B8
:100B3700EF33FFEE33FEED33FDEC33FCD5F0ED2262
:0E0B4700E5F0247EA2D513CC92E7CDCEFF229E
:100B5500EDD2E7CD33EC3392D524814006E4FFFE98
:100B6500FDFC22FCE4CFCECDCC24E0501174FF80F7
:100B7500EDC3CC13CCCD13CDCE13CECF13CF047094
:070B8500F030D5DE020C5830
:100B8C00E9D2E7C933E833F892D5EDD2E7CD33ECAF
:070B9C0033FC5002B2D52228
:100BA300EC30E7100FBF000C0EBE00080DBD0004B3
:100BB3000BEB6014A2D5EB13FCED92E7FD2274FF5F
:100BC300FCFDFEFF22E480F8A2D574FF13FC7D80B8
:030BD300E480EFCC
:03000000020FAB41
:0C0FAB00787FE4F6D8FD758170020FF22B
:100BD600BB010CE58229F582E5833AF583E02250D4
:100BE60006E92582F8E622BBFE06E92582F8E2221E
:0D0BF600E58229F582E5833AF583E4932238
:100C0300BC000BBE0029EF8DF084FFADF022E4CCD5
:100C1300F875F008EF2FFFEE33FEEC33FCEE9DEC9E
:100C2300984005FCEE9DFE0FD5F0E9E4CEFD22EDE4
:100C3300F8F5F0EE8420D21CFEADF075F008EF2F2E
:100C4300FFED33FD4007985006D5F0F222C398FD1F
:050C53000FD5F0EA22BC
:0E0C5800C3E49FFFE49EFEE49DFDE49CFC22AD
:100FB700021336E493A3F8E493A34003F68001F207
:100FC70008DFF48029E493A3F85407240CC8C3333B
:100FD700C4540F4420C8834004F456800146F6DF0A
:100FE700E4800B01020408102040809010AEE47EDC
:100FF700019360BCA3FF543F30E509541FFEE493FF
:10100700A360010ECF54C025E060A840B8E493A3C5
:10101700FAE493A3F8E493A3C8C582C8CAC583CAF0
:10102700F0A3C8C582C8CAC583CADFE9DEE780BEA8
:01111C0000D2
:00000001FF
