:1013B60012112B1214D07580FFE4F5A0D294C296B8
:1013C600C297D2957F011214C88E088F09120C6637
:0213D60080F2A3
:10112B007F0F7E001213967B08E4FD7F3012125363
:10113B001213927B08E4FD7F301212537F017E0065
:10114B001213967B08E4FD7F301212537B08E4FDEB
:10115B007F2012125312148D7B04E4FD7F28121290
:10116B005312148D7B04E4FD7F0812125312148D5D
:10117B0012124D12148D7B04E4FD7F0612125312D2
:10118B00148D7B04E4FD7F0212125312148D7B0429
:07119B00E4FD7F0C0212537A
:0614D00012124D02148D02
:10146400EF75F028A42D24D74480FF7B04E4FD12FB
:05147400125302148D6B
:0A147900851182851083120BD6FF47
:0A1483007B047D0112125302148D48
:041392007F057E0055
:10139600E4FDFCC3ED9FEC9E5015E4FBFA0BBB008D
:0F13A600010AEB64F04A70F50DBD00010C80E404
:0113B5002215
:06124D007B04E4FD7F01BB
:10125300ED3395E04D7004C2B28002D2B2C2B1EB5D
:10126300FD3395E0FCED64044C701DEF54F0FEE596
:10127300B0540F4EF5B0D2B0C2B0EFC454F0FFE596
:0F128300B0540F4FF5B080028FB0D2B0C2B0227E
:10148D00D2B7C2B2D2B1D2B020B7FDC2B0C2B12272
:0611A2008B0A8A0B890C88
:1011A8007D017F01121464E4F510F511AB0AAA0B56
:1011B800A90C1214791213920511E5117002051089
:1011C800C39410E510940040E37D017F021214647B
:1011D800E4F510F511AB0DAA0EA90F12147912132C
:1011E800920511E51170020510C39410E5109400E2
:0211F80040E3D2
:0111FA0022D2
:1013D800E4FDFCC3ED9FEC9E5015E4FBFA0BBB004B
:0F13E800010AEB64F04A70F50DBD00010C80E4C2
:0113F70022D3
:10136700A907E96401700DD2A2C2A37FF47E01121E
:1013770013D88012E96402700DC2A2D2A37FF47E53
:0B138700011213D88000C2A2C2A322F2
:100E77004D454E55202020202020202020202020B6
:100E87003C2D2020202020202020202020202D3E07
:100E970054454D503A2020204D41582E543A202099
:100EA70048554D3A202020204D494E2E483A2020C3
:100EB7004D4F544F5220202020202020202020203A
:100EC70056454E54494C41444F5220202020202063
:100ED700424F4D424120202020202020202020204A
:100EE7004F46462020202020202020202020202080
:100EF7004F4E20202020202020202020202020208E
:100F07004155542020202020202020202020202050
:100F1700444F574E20202020202020202020202012
:100F27005550202020202020202020202020202055
:1011FB00012800013100012100012900022B000010
:10120B0002220000022D0140022F000002240140A7
:10121B00012600012A00012700C1005000002020F8
:10122B002E204320202020202E2043202020500041
:10123B001020202E202520202020202E202520208D
:01124B002082
:080FF5008F198E188D178C1660
:100FFD007F0A7ED77D237C3CAB19AA18A917A816AA
:10100D00120A9E60025008E4FFFE7DA07CC022E41F
:10101D00FFFE7D807C3FAB19AA18A917A8161208F0
:10102D0007C004C005C006C007E4FFFE7D807CBF7D
:10103D00AB19AA18A917A816120807D003D002D009
:10104D0001D000120A018F1D8E1C8D1B8C1AA80455
:10105D00A905AA06AB071208F8E4FBFA7940784017
:10106D00120A01E4FBFA7980783F120807C004C028
:10107D0005C006C007E4FFFEFD7C40AB1DAA1CA900
:10108D001BA81A1208F8D003D002D001D000120804
:01109D00F85A
:01109E00222F
:100F3700751B33751A337519A37518401214178F5B
:100F47000D8E0C8D0B8C0AAB0DAA0CA90BA80A7F72
:100F5700337E337DA37C40120803C004C005C0065E
:100F6700C0077F007E407D1C7C46AB0DAA0CA90BF9
:100F7700A80A1208F8D003D002D001D000120A0143
:100F87007B007A40791C7846120A01120FF58F11FF
:100F97008E108D0F8C0E7F307E997D837C39AB113F
:100FA700AA10A90FA80E1208F87B0F7ACF795B78E1
:100FB7003B120807A804A905AA06AB07E4FFFE7DB4
:100FC700807C3F120A018F158E148D138C127F338C
:100FD7007E937D887CC3AB15AA14A913A8121208A7
:0E0FE70007E4FBFA792078411208F8020B5556
:10133800AB07AA067C007D64120C038F317C007D0C
:101348000AAF03AE02120C037C007D0A120C038D57
:0F13580021AE02AF037C007D0A120C038D292207
:10143400208409052EE52E700E052D22208308E553
:081444002E152E7002152D2259
:10144C002084090525E525700E052422208308E556
:08145C0025152570021524225C
:0E14AC00208102052AE52A64037002F52A2237
:1013F80020840375260120830375260220810FE5CA
:0F140800267003752603E52664037002F526227D
:0E14BA002081020527E52764037002F5272232
:10129200E52A14600B14600C2402702DC2A480296C
:1012A200D2A48025C3E52C952EE52B952D400ED298
:1012B200A42000157F01121367D200800CC2A43053
:0E12C20000077F02121367C200E4FF021367E9
:100C6600120F378E2B8F2C20820C0528E528640660
:100C76007011F528800D2080111528E528F47003E1
:100C86007528057FC87E001213D8E5287012750DE9
:100C9600FF750E0E750F877BFF7A0E7977020E7140
:100CA600E5286401704F121434AF2CAE2B121338A2
:100CB600E5312430900000F0E5212430A3F0E52949
:100CC6002430900003F0AF2EAE2D121338E53124F8
:100CD60030900008F0E5212430A3F0E52924309077
:100CE600000BF0750D01750E00750F007BFF7A0E77
:100CF6007997020E71E5286402704F12144CAF30DA
:100D0600AE2F121338E5312430900010F0E521247F
:100D160030A3F0E5292430900013F0AF25AE24125D
:100D26001338E5312430900018F0E5212430A3F083
:100D3600E529243090001BF0750D01750E00750F26
:100D4600107BFF7A0E79A7020E71E5286403600313
:100D5600020DDB1213F8E526701A750DFF750E0EDF
:100D6600750FE77BFF7A0E79B71211A2E4FF121313
:100D760067020E74E5266401701B750DFF750E0F74
:100D8600750F277BFF7A0E79B71211A27F01121316
:100D960067D200801FE5266402701F750DFF750E71
:100DA6000F750F177BFF7A0E79B71211A27F021209
:100DB6001367C200E4F526020E74E5266403600399
:100DC600020E74750DFF750E0F750F077BFF7A0EF9
:100DD60079B7020E71E528640470461214ACE52A50
:100DE6007011750DFF750E0E750FE77BFF7A0E7984
:100DF600C78078E52A64017011750DFF750E0E75B2
:100E06000FF77BFF7A0E79C78061E52A6402705E70
:100E1600750DFF750E0F750F077BFF7A0E79C7806C
:100E26004AE528640570471214BAE5277011750D56
:100E3600FF750E0E750FE77BFF7A0E79D7802CE5CE
:100E46002764017011750DFF750E0E750FF77BFF88
:100E56007A0E79D78015E52764027012750DFF7535
:100E66000E0F750F077BFF7A0E79D71211A20212A9
:010E760092E9
:0314D600000022F1
:0F149D00EF24FF9297D2961214D6C2960214D65D
:02130700AE072F
:10130900E4FD7C07EC3395E0C364809480401DA81C
:1013190004EE088002C313D8FC5401FF12149DED9A
:0E13290025E0FDA295E43342051C80D8AF05F7
:011337002293
:1012D000EF54034418FFC2941213078F0AE4FF125D
:1012E00013078F0BE4FF1213078F0CD294E50B54F6
:1012F0003FFF7E007806C333CE33CED8F9FFE50C2E
:061300001313543F4207E5
:0113060022C4
:0814C8001212D0EE540FFE22B7
:10141700AD07AC06E4120B1CAB1BAA1AA919A81836
:0D1427001208F8E4FBFA79807845020A010A
:10080000020BC1E86480F8E933E83360110460F05A
:10081000ED33EC337009E8FCE9FDEAFEEBFF22045E
:1008200060DED3EB9FEA9EE99DE8C2E78CF0C2F759
:1008300095F0400CE8CCF8E9CDF9EACEFAEBCFFB25
:10084000120B8C85D0F05804700320D5B3E80470E7
:10085000075002B2D5020BCB92D5EC0460F7E4CC82
:10086000C0E0C398F8603B94186008400DD0E0FBEE
:10087000020BA3E4FBFAC9FC8028E830E406E4C9D3
:10088000FBE4CAFCE830E305E4C9CACBFCE8540742
:100890006010F8C3E913F9EA13FAEB13FBEC13FC4D
:1008A000D8F130F52FC3E49CFCEF9BFFEE9AFEEDF0
:1008B00099FDD0E0FBEF4E4D4C701222DB03020B92
:1008C000C8EC2CFCEF33FFEE33FEED33FDED30E7EB
:1008D000EB020BA3EF2BFFEE3AFEED39FDD0E0FB70
:1008E00050130BBB0003020BCBED13FDEE13FEEF19
:0808F00013FFEC13FC020BA343
:1008F800EC4D6011E8497017ED33EC3304600DE4FA
:10090800FCFFFEFD22E933E8330470F8020BC11244
:100918000B8C58046009E4CC248150062850090245
:100928000BCB284003020BC8C0E0EB4A7044B980E7
:1009380006D0E0FB020BB7EF4E701CBD8008EBFF42
:10094800EAFEE9FD80EBE98DF0A4FEE5F00209E19D
:10095800E9CDF9EAFEEBFFEF89F0A4FCE5F0CE89DA
:10096800F0A42EFFE435F0CD89F0A42DFEE435F097
:100978008067EF4E7005BD80D780C3EF8BF0A4ACC5
:10098800F0EE8BF0A42CFCE435F0F8EF8AF0A42C00
:10099800E5F038FCE433CB8DF0A42CFCE5F03BF813
:1009A800EE8AF0A42CFCE5F038F8E433CF89F0A403
:1009B8002CFCE5F038CF3400CE89F0A42FFFE5F009
:1009C8003EFEE433C98DF0A42EFEE5F039CD8AF061
:1009D800A42FFFE5F03EFEE43DFD33D0E0FB5007D9
:1009E8000BBB000F020BCBEC2CFCEF33FFEE33FEFE
:0609F800ED33FD020BA32C
:1009FE00020BCBEC5D046005E859047003020BC1D9
:100A0E00120B8C580460F6EC4860F2EC7004FDFE9C
:100A1E00FF22C860DB2481C85009C39860025006CB
:100A2E00020BC89850CAF582E9294B4A7005AB8271
:100A3E00020BB775F0007C1A7880C3EF9BEE9AED2F
:100A4E0099400DC3EF9BFFEE9AFEED99FDE842F043
:100A5E00DC23ACF0D0E0FFD0E0FED0E0FDAB822096
:100A6E00E7101BEB60BAEC2CFCEF33FFEE33FEED20
:100A7E0033FD020BA3E803F830E705C0F075F00074
:100A8E00EF2FFFEE33FEED33FD40B830E7C280AA04
:100A9E0074F8CC6480CCC86480C8F58204604FC3FF
:100AAE00EB9FF5F0EA9E42F0E99D42F0E89C45F09E
:100ABE00603C501DE5825FFFE582D313CB5BCBF428
:100ACE002B5582FB50280ABA002409B90020088051
:100ADE001DE5825BFBE582D313CF5FCFF4C3132FEB
:100AEE005582FF50090EBE00050DBD00010CC3EB73
:100AFE009FF5F0EA9E42F0E99D42F0E89C45F060D9
:090B0E0007CC4820E701B3EC22FA
:100B170075F020800E75F010800575F0087D007E59
:100B2700007F003392D530D503120C58EC334010B8
:100B3700EF33FFEE33FEED33FDEC33FCD5F0ED2262
:0E0B4700E5F0247EA2D513CC92E7CDCEFF229E
:100B5500EDD2E7CD33EC3392D524814006E4FFFE98
:100B6500FDFC22FCE4CFCECDCC24E0501174FF80F7
:100B7500EDC3CC13CCCD13CDCE13CECF13CF047094
:070B8500F030D5DE020C5830
:100B8C00E9D2E7C933E833F892D5EDD2E7CD33ECAF
:070B9C0033FC5002B2D52228
:100BA300EC30E7100FBF000C0EBE00080DBD0004B3
:100BB3000BEB6014A2D5EB13FCED92E7FD2274FF5F
:100BC300FCFDFEFF22E480F8A2D574FF13FC7D80B8
:030BD300E480EFCC
:0300000002109F4C
:0C109F00787FE4F6D8FD7581310210E680
:100BD600BB010CE58229F582E5833AF583E02250D4
:100BE60006E92582F8E622BBFE06E92582F8E2221E
:0D0BF600E58229F582E5833AF583E4932238
:100C0300BC000BBE0029EF8DF084FFADF022E4CCD5
:100C1300F875F008EF2FFFEE33FEEC33FCEE9DEC9E
:100C2300984005FCEE9DFE0FD5F0E9E4CEFD22EDE4
:100C3300F8F5F0EE8420D21CFEADF075F008EF2F2E
:100C4300FFED33FD4007985006D5F0F222C398FD1F
:050C53000FD5F0EA22BC
:0E0C5800C3E49FFFE49EFEE49DFDE49CFC22AD
:1010AB000213B6E493A3F8E493A34003F68001F292
:1010BB0008DFF48029E493A3F85407240CC8C33346
:1010CB00C4540F4420C8834004F456800146F6DF15
:1010DB00E4800B01020408102040809011FBE47E99
:1010EB00019360BCA3FF543F30E509541FFEE4930A
:1010FB00A360010ECF54C025E060A840B8E493A3D1
:10110B00FAE493A3F8E493A3C8C582C8CAC583CAFB
:10111B00F0A3C8C582C8CAC583CADFE9DEE780BEB3
:01124C0000A1
:00000001FF
