:1012AA001210CE1214577580FFE4F5A0D294C2969C
:1012BA00C297D2957F0112144F8E218F227F02127C
:1012CA00144F8E238F24AD24AC23AF22AE21120CEF
:0312DA006680E14A
:1010CE007F0F7E0012136C7B08E4FD7F301211F649
:1010DE001213687B08E4FD7F301211F67F017E004B
:1010EE0012136C7B08E4FD7F301211F67B08E4FDD1
:1010FE007F201211F61214227B04E4FD7F281211B8
:10110E00F61214227B04E4FD7F081211F61214224B
:10111E001211F01214227B04E4FD7F061211F61256
:10112E0014227B04E4FD7F021211F61214227B04BA
:07113E00E4FD7F0C0211F635
:061457001211F002142244
:1013F900EF75F028A42D24D74480FF7B04E4FD1267
:0514090011F60214229F
:0A140E00852E82852D83120BD6FF78
:0A1418007B047D011211F60214227C
:041368007F057E007F
:10136C00E4FDFCC3ED9FEC9E5015E4FBFA0BBB00B7
:0F137C00010AEB64F04A70F50DBD00010C80E42E
:01138B00223F
:0611F0007B04E4FD7F0119
:1011F600ED3395E04D7004C2B28002D2B2C2B1EBBB
:10120600FD3395E0FCED64044C701DEF54F0FEE5F3
:10121600B0540F4EF5B0D2B0C2B0EFC454F0FFE5F3
:0F122600B0540F4FF5B080028FB0D2B0C2B022DB
:10142200D2B7C2B2D2B1D2B020B7FDC2B0C2B122DD
:061145008B278A2889298E
:10114B007D017F011213F9E4F52DF52EAB27AA28AB
:10115B00A92912140E121368052EE52E7002052D07
:10116B00C39410E52D940040E37D017F021213F927
:10117B00E4F52DF52EAB2AAA2BA92C12140E121363
:10118B0068052EE52E7002052DC39410E52D9400F5
:02119B0040E32F
:01119D00222F
:10138C00E4FDFCC3ED9FEC9E5015E4FBFA0BBB0097
:0F139C00010AEB64F04A70F50DBD00010C80E40E
:0113AB00221F
:10133D00A907E96401700DD2A2C2A37FF47E011248
:10134D00138C8012E96402700DC2A2D2A37FF47EC9
:0B135D000112138C8000C2A2C2A32268
:10104E004D454E55202020202020202020202020DD
:10105E003C2D2020202020202020202020202D3E2E
:10106E0054454D503A2020204D41582E543A2020C0
:10107E0048554D3A202020204D494E2E483A2020EA
:10108E0056454E54494C41444F522020202020209A
:10109E004F464620202020202020202020202020C7
:1010AE004F4E2020202020202020202020202020D5
:1010BE004155542020202020202020202020202098
:10119E00010F0001180001080001100002120000EA
:1011AE00020900000214014002160000020B014069
:1011BE00010D00011100010E00C1005000002020A1
:1011CE002E204320202020202E204320202050009F
:1011DE001020202E202520202020202E20252020EB
:0111EE0020E0
:080E79008F368E358D348C3369
:100E81007F0A7ED77D237C3CAB36AA35A934A833B3
:100E9100120A9E60025008E4FFFE7DA07CC022E49D
:100EA100FFFE7D807C3FAB36AA35A934A8331208FA
:100EB10007C004C005C006C007E4FFFE7D807CBFFB
:100EC100AB36AA35A934A833120807D003D002D013
:100ED10001D000120A018F3A8E398D388C37A8045F
:100EE100A905AA06AB071208F8E4FBFA7940784095
:100EF100120A01E4FBFA7980783F120807C004C0A6
:100F010005C006C007E4FFFEFD7C40AB3AAA39A943
:100F110038A8371208F8D003D002D001D000120847
:010F2100F8D7
:010F220022AC
:100DBB007538337537337536A37535401213AC8FD1
:100DCB002A8E298D288C27AB2AAA29A928A8277F08
:100DDB00337E337DA37C40120803C004C005C006DC
:100DEB00C0077F007E407D1C7C46AB2AAA29A92820
:100DFB00A8271208F8D003D002D001D000120A01A4
:100E0B007B007A40791C7846120A01120E798F2EDC
:100E1B008E2D8D2C8C2B7F307E997D837C39AB2E48
:100E2B00AA2DA92CA82B1208F87B0F7ACF795B7807
:100E3B003B120807A804A905AA06AB07E4FFFE7D31
:100E4B00807C3F120A018F328E318D308C2F7F3395
:100E5B007E937D887CC3AB32AA31A930A82F1208B0
:0E0E6B0007E4FBFA792078411208F8020B55D3
:100F2300E4F538F5377536A07535401213AC8F2EBE
:100F33008E2D8D2C8C2B7F9A7E997D897C40AB2EB8
:100F4300AA2DA92CA82B120A9E600E400C752E9A6E
:100F5300752D99752C89752B407F667E667D067C81
:100F630040AB2EAA2DA92CA82B120A9E500C752E2D
:100F730066752D66752C06752B40AB2EAA2DA92CF4
:100F8300A82B7F9A7E997D897C401208037BCE7AB9
:100F9300CC790C7840120A01E4FBFA79C878421242
:100FA30008F88F2A8E298D288C27E4FFFE7D207C6C
:0F0FB30041AB2AAA29A928A8271208F8020B5532
:10130E00AB07AA067C007D64120C038F187C007D4F
:10131E000AAF03AE02120C037C007D0A120C038D81
:0F132E0008AE02AF037C007D0A120C038D102263
:1013C9002084090515E515700E051422208308E50A
:0813D900151515700215142210
:1013E100208409050CE50C700E050B22208308E50D
:0813F1000C150C7002150B2213
:0E1441002081020511E51164037002F51122ED
:10123500E51114600B14600C2402702DC2A48029E2
:10124500D2A48025C3E5139515E5129514400ED259
:10125500A42000157F0112133DD200800CC2A430DA
:0E12650000077F0212133DC200E4FF02133D9A
:040C66008E258F2622
:100C6A00AF05AE04120F238E168F17AF26AE2512CC
:100C7A000DBB8E128F1320820C050FE50F640670D0
:100C8A0011F50F800D208011150FE50FF470037513
:100C9A000F057FC87E0012138CE50F7012752AFFAC
:100CAA00752B10752C5E7BFF7A10794E020D9BE531
:100CBA000F6401704F1213C9AF13AE1212130EE56F
:100CCA00182430900000F0E5082430A3F0E5102441
:100CDA0030900003F0AF15AE1412130EE51824304D
:100CEA00900008F0E5082430A3F0E51024309000C5
:100CFA000BF0752A01752B00752C007BFF7A107991
:100D0A006E020D9BE50F6402704E1213E1AF17AE2F
:100D1A001612130EE5182430900010F0E50824305E
:100D2A00A3F0E5102430900013F0AF0CAE0B1213B1
:100D3A000EE5182430900018F0E5082430A3F0E5F9
:100D4A0010243090001BF0752A01752B00752C10A9
:100D5A007BFF7A10797E8039AF0FEF6403604FEF23
:100D6A006404704A121441E5117011752AFF752B3B
:100D7A0010752C9E7BFF7A10798E8015E51164011F
:100D8A007014752AFF752B10752CAE7BFF7A1079BB
:100D9A008E1211458018E51164027012752AFF75CA
:100DAA002B10752CBE7BFF7A10798E121145021218
:010DBA003503
:03145D000000226A
:0F143200EF24FF9297D29612145DC29602145DBA
:0212DD00AE075A
:1012DF00E4FD7C07EC3395E0C364809480401DA847
:1012EF0004EE088002C313D8FC5401FF121432ED30
:0E12FF0025E0FDA295E43342051C80D8AF0522
:01130D0022BD
:10127300EF54034418FFC2941212DD8F25E4FF12CA
:1012830012DD8F26E4FF1212DD8F27D294E5265458
:101293003FFF7E007806C333CE33CED8F9FFE52770
:0612A3001313543F420743
:0112A9002222
:08144F00121273EE540FFE228D
:1013AC00AD07AC06E4120B1CAB38AA37A936A8352E
:0D13BC001208F8E4FBFA79807845020A0176
:10080000020BC1E86480F8E933E83360110460F05A
:10081000ED33EC337009E8FCE9FDEAFEEBFF22045E
:1008200060DED3EB9FEA9EE99DE8C2E78CF0C2F759
:1008300095F0400CE8CCF8E9CDF9EACEFAEBCFFB25
:10084000120B8C85D0F05804700320D5B3E80470E7
:10085000075002B2D5020BCB92D5EC0460F7E4CC82
:10086000C0E0C398F8603B94186008400DD0E0FBEE
:10087000020BA3E4FBFAC9FC8028E830E406E4C9D3
:10088000FBE4CAFCE830E305E4C9CACBFCE8540742
:100890006010F8C3E913F9EA13FAEB13FBEC13FC4D
:1008A000D8F130F52FC3E49CFCEF9BFFEE9AFEEDF0
:1008B00099FDD0E0FBEF4E4D4C701222DB03020B92
:1008C000C8EC2CFCEF33FFEE33FEED33FDED30E7EB
:1008D000EB020BA3EF2BFFEE3AFEED39FDD0E0FB70
:1008E00050130BBB0003020BCBED13FDEE13FEEF19
:0808F00013FFEC13FC020BA343
:1008F800EC4D6011E8497017ED33EC3304600DE4FA
:10090800FCFFFEFD22E933E8330470F8020BC11244
:100918000B8C58046009E4CC248150062850090245
:100928000BCB284003020BC8C0E0EB4A7044B980E7
:1009380006D0E0FB020BB7EF4E701CBD8008EBFF42
:10094800EAFEE9FD80EBE98DF0A4FEE5F00209E19D
:10095800E9CDF9EAFEEBFFEF89F0A4FCE5F0CE89DA
:10096800F0A42EFFE435F0CD89F0A42DFEE435F097
:100978008067EF4E7005BD80D780C3EF8BF0A4ACC5
:10098800F0EE8BF0A42CFCE435F0F8EF8AF0A42C00
:10099800E5F038FCE433CB8DF0A42CFCE5F03BF813
:1009A800EE8AF0A42CFCE5F038F8E433CF89F0A403
:1009B8002CFCE5F038CF3400CE89F0A42FFFE5F009
:1009C8003EFEE433C98DF0A42EFEE5F039CD8AF061
:1009D800A42FFFE5F03EFEE43DFD33D0E0FB5007D9
:1009E8000BBB000F020BCBEC2CFCEF33FFEE33FEFE
:0609F800ED33FD020BA32C
:1009FE00020BCBEC5D046005E859047003020BC1D9
:100A0E00120B8C580460F6EC4860F2EC7004FDFE9C
:100A1E00FF22C860DB2481C85009C39860025006CB
:100A2E00020BC89850CAF582E9294B4A7005AB8271
:100A3E00020BB775F0007C1A7880C3EF9BEE9AED2F
:100A4E0099400DC3EF9BFFEE9AFEED99FDE842F043
:100A5E00DC23ACF0D0E0FFD0E0FED0E0FDAB822096
:100A6E00E7101BEB60BAEC2CFCEF33FFEE33FEED20
:100A7E0033FD020BA3E803F830E705C0F075F00074
:100A8E00EF2FFFEE33FEED33FD40B830E7C280AA04
:100A9E0074F8CC6480CCC86480C8F58204604FC3FF
:100AAE00EB9FF5F0EA9E42F0E99D42F0E89C45F09E
:100ABE00603C501DE5825FFFE582D313CB5BCBF428
:100ACE002B5582FB50280ABA002409B90020088051
:100ADE001DE5825BFBE582D313CF5FCFF4C3132FEB
:100AEE005582FF50090EBE00050DBD00010CC3EB73
:100AFE009FF5F0EA9E42F0E99D42F0E89C45F060D9
:090B0E0007CC4820E701B3EC22FA
:100B170075F020800E75F010800575F0087D007E59
:100B2700007F003392D530D503120C58EC334010B8
:100B3700EF33FFEE33FEED33FDEC33FCD5F0ED2262
:0E0B4700E5F0247EA2D513CC92E7CDCEFF229E
:100B5500EDD2E7CD33EC3392D524814006E4FFFE98
:100B6500FDFC22FCE4CFCECDCC24E0501174FF80F7
:100B7500EDC3CC13CCCD13CDCE13CECF13CF047094
:070B8500F030D5DE020C5830
:100B8C00E9D2E7C933E833F892D5EDD2E7CD33ECAF
:070B9C0033FC5002B2D52228
:100BA300EC30E7100FBF000C0EBE00080DBD0004B3
:100BB3000BEB6014A2D5EB13FCED92E7FD2274FF5F
:100BC300FCFDFEFF22E480F8A2D574FF13FC7D80B8
:030BD300E480EFCC
:03000000020FC22A
:0C0FC200787FE4F6D8FD75813A02100932
:100BD600BB010CE58229F582E5833AF583E02250D4
:100BE60006E92582F8E622BBFE06E92582F8E2221E
:0D0BF600E58229F582E5833AF583E4932238
:100C0300BC000BBE0029EF8DF084FFADF022E4CCD5
:100C1300F875F008EF2FFFEE33FEEC33FCEE9DEC9E
:100C2300984005FCEE9DFE0FD5F0E9E4CEFD22EDE4
:100C3300F8F5F0EE8420D21CFEADF075F008EF2F2E
:100C4300FFED33FD4007985006D5F0F222C398FD1F
:050C53000FD5F0EA22BC
:0E0C5800C3E49FFFE49EFEE49DFDE49CFC22AD
:100FCE000212AAE493A3F8E493A34003F68001F27D
:100FDE0008DFF48029E493A3F85407240CC8C33324
:100FEE00C4540F4420C8834004F456800146F6DFF3
:100FFE00E4800B010204081020408090119EE47ED4
:10100E00019360BCA3FF543F30E509541FFEE493E7
:10101E00A360010ECF54C025E060A840B8E493A3AE
:10102E00FAE493A3F8E493A3C8C582C8CAC583CAD9
:10103E00F0A3C8C582C8CAC583CADFE9DEE780BE91
:0111EF0000FF
:00000001FF
