:101051002048454C4C4F2042415243454C4F4E4154
:101061002049494549412032303234202020202076
:100F7100120D0C12115C7590FF7580FFE4F5A07DD8
:100F8100017F011210DD7F311210FC7F057E0012FE
:100F910010717D0A7F011210DD7F321210FC7F0576
:070FA1007E0012107180D8E0
:100D0C007F0F7E001210317B08E4FD7F30120EB293
:100D1C0012102D7B08E4FD7F30120EB27F017E0095
:100D2C001210317B08E4FD7F30120EB27B08E4FD1B
:100D3C007F20120EB21211067B04E4FD7F28120EE6
:100D4C00B21211067B04E4FD7F08120EB2121106DA
:100D5C00120EAC1211067B04E4FD7F06120EB212C9
:100D6C0011067B04E4FD7F02120EB21211067B0405
:070D7C00E4FD7F0C020EB242
:06115C00120EAC021106A8
:1010DD00EF75F028A42D24D74480FF7B04E4FD1286
:0510ED000EB202110625
:0A10F200850F82850E83120A2EFF7F
:0A10FC007B047D01120EB202110602
:04102D007F057E00BD
:10103100E4FDFCC3ED9FEC9E5015E4FBFA0BBB00F5
:0F104100010AEB64F04A70F50DBD00010C80E46C
:01105000227D
:060EAC007B04E4FD7F0160
:100EB200ED3395E04D7004C2B28002D2B2C2B1EB02
:100EC200FD3395E0FCED64044C701DEF54F0FEE53B
:100ED200B0540F4EF5B0D2B0C2B0EFC454F0FFE53B
:0F0EE200B0540F4FF5B080028FB0D2B0C2B02223
:10110600D2B7C2B2D2B1D2B020B7FDC2B0C2B122FC
:060E50008B088A09890AE3
:100E560012115C7D017F011210DDE4F50EF50FAB7A
:100E660008AA09A90A1210F212102D050FE50F7033
:100E760002050EC39410E50E940040E37D017F0247
:100E86001210DDE4F50EF50FAB0BAA0CA90D12102E
:100E9600F212102D050FE50F7002050EC39410E532
:050EA6000E940040E382
:010EAB002224
:07114E0075C35043C31022DA
:0A1132008FC5E5C430E7FBAFC5220E
:100DEE00EFB40800503D900DFBF8282873020E1347
:100DFE00020E17020E1B020E1F020E23020E2702F8
:100E0E000E2B020E2F7EC7801A7EE780167ECF80B5
:100E1E00127EEF800E7ED7800A7EF780067EDF8000
:100E2E00027EFFC291AF06121132E4FF121132ADF3
:100E3E0007E4FF121132D291EF131313541FFF7EEA
:010E4E0000A3
:010E4F002280
:10109100AD07AC06E41209ABE4FBFA79A078401283
:0C10A1000800E4FBFA7980784502090998
:0711550075C35043C31022D3
:020FD700AE0763
:100FD9007F01EE5403FEC454F04480F514C291120B
:100FE9001132AF141211328F15E4FF121132AD070D
:090FF900D291E515541FFEEDFF35
:0110020022CB
:04100300AB07AA0687
:10100700E4F513F5127511A0751040AD07AC061283
:1010170009ABAB13AA12A911A810120800E4FBFA36
:06102700F97846020909F8
:10107100E4FDFCC3ED9FEC9E5015E4FBFA0BBB00B5
:0F108100010AEB64F04A70F50DBD00010C80E42C
:01109000223D
:09113C00A20092A0A20192A122DE
:09114500A20392A5A20292A422C9
:100EF100A907E964017014D200D20112113CD2A2F7
:100F0100C2A37F887E131210718020E964027014DD
:100F1100D200D20112113CC2A2D2A37F887E131249
:100F210010718007C200C20112113CC2A2C2A322E9
:100F310054454D503A2020204D41582E543A2020FE
:100F410048554D3A202020204D494E2E483A202028
:100F51004D4F544F5220202020202020202020209F
:100F610056454E54494C41444F52202020202020C8
:100D8300015700015E00012100015800022200F515
:100D9300025A0140102720202E204320202020200B
:100DA3002E2043202020025C00F50224014010374E
:100DB30020202E202520202020202E20252020200A
:100DC3000126001047202020202020202020202042
:100DD3002020202020015900105F202020202020E7
:0A0DE30020202020202020202020C6
:100FA800AB07AA067C007D64120A5B8F5E7C007D1D
:100FB8000AAF03AE02120A5B7C007D0A120A5B8D3F
:0F0FC80021AE02AF037C007D0A120A5B8D582216
:1010AD00208009055BE55B700E055A22208208E55C
:0810BD005B155B7002155A225D
:1010C5002080090525E525700E052422208208E5E6
:0810D5002515257002152422E7
:0E1116002081020559E55964047002F5592242
:0E1124002081020526E52664047002F52622CD
:100ABE0020830C0557E55764057011F557800D20FE
:100ACE0084111557E557F470037557047FC87E00DF
:100ADE00121071AF57EF7003020C79640170471258
:100AEE0010ADAF23AE22120FA8E55E2430F527E538
:100AFE00212430F528E5582430F52AAF5BAE5A1282
:100B0E000FA8E55E2430F52FE5212430F530E558A9
:100B1E002430F532750B00750C00750D277BFF7AAE
:100B2E000F7931020C76E557640270471210C5AF8B
:100B3E005DAE5C120FA8E55E2430F537E52124305A
:100B4E00F538E5582430F53AAF25AE24120FA8E556
:100B5E005E2430F53FE5212430F540E5582430F58C
:100B6E0042750B00750C00750D377BFF7A0F7941BE
:100B7E00020C76E55764036003020C2C121124E577
:100B8E0026702575474F754846754946754A20F5B6
:100B9E000B750C00750D477BFF7A0F7951120E50B5
:100BAE00E4FF120EF1020C79E526640170217547FF
:100BBE0055754850754920754A20F50B750C007512
:100BCE000D477BFF7A0F7951120E507F018025E57C
:100BDE00266402702775474475484F754957754A04
:100BEE004EF50B750C00750D477BFF7A0F79511280
:100BFE000E507F02120EF1E4F526806FE526640397
:100C0E007069754741754855754954754A4FF50BCE
:100C1E00750C00750D477BFF7A0F7951804AE557A9
:100C2E0064047047121116AF597E00EF700B756099
:100C3E004F7561467562468020EF64014E700B75EC
:100C4E00604F75614E756220800FEF64024E700921
:100C5E00756041756155756254750B00750C0075A4
:100C6E000D5F7BFF7A0F7961120E507F647E00025A
:020C7E001071F3
:10080000EC4D6011E8497017ED33EC3304600DE4F2
:10081000FCFFFEFD22E933E8330470F8020A1912E6
:1008200009E458046009E4CC2481500628500902E8
:100830000A23284003020A20C0E0EB4A7044B98032
:1008400006D0E0FB020A0FEF4E701CBD8008EBFFE4
:10085000EAFEE9FD80EBE98DF0A4FEE5F00208E98F
:10086000E9CDF9EAFEEBFFEF89F0A4FCE5F0CE89D3
:10087000F0A42EFFE435F0CD89F0A42DFEE435F090
:100880008067EF4E7005BD80D780C3EF8BF0A4ACBE
:10089000F0EE8BF0A42CFCE435F0F8EF8AF0A42CF9
:1008A000E5F038FCE433CB8DF0A42CFCE5F03BF80C
:1008B000EE8AF0A42CFCE5F038F8E433CF89F0A4FC
:1008C0002CFCE5F038CF3400CE89F0A42FFFE5F002
:1008D0003EFEE433C98DF0A42EFEE5F039CD8AF05A
:1008E000A42FFFE5F03EFEE43DFD33D0E0FB5007D2
:1008F0000BBB000F020A23EC2CFCEF33FFEE33FEA0
:06090000ED33FD0209FBCE
:10090600020A23EC5D046005E859047003020A1923
:100916001209E4580460F6EC4860F2EC7004FDFE3F
:10092600FF22C860DB2481C85009C39860025006C4
:10093600020A209850CAF582E9294B4A7005AB8213
:10094600020A0F75F0007C1A7880C3EF9BEE9AEDD1
:1009560099400DC3EF9BFFEE9AFEED99FDE842F03C
:10096600DC23ACF0D0E0FFD0E0FED0E0FDAB82208F
:10097600E7101BEB60BAEC2CFCEF33FFEE33FEED19
:1009860033FD0209FBE803F830E705C0F075F00017
:10099600EF2FFFEE33FEED33FD40B830E7C280AAFD
:1009A60075F020800E75F010800575F0087D007ECC
:1009B600007F003392D530D503120AB0EC334010D5
:1009C600EF33FFEE33FEED33FDEC33FCD5F0ED22D5
:0E09D600E5F0247EA2D513CC92E7CDCEFF2211
:1009E400E9D2E7C933E833F892D5EDD2E7CD33EC59
:0709F40033FC5002B2D522D2
:1009FB00EC30E7100FBF000C0EBE00080DBD00045D
:100A0B000BEB6014A2D5EB13FCED92E7FD2274FF08
:100A1B00FCFDFEFF22E480F8A2D574FF13FC7D8061
:030A2B00E480EF75
:03000000020C806F
:0C0C8000787FE4F6D8FD75816E020CC789
:100A2E00BB010CE58229F582E5833AF583E022507D
:100A3E0006E92582F8E622BBFE06E92582F8E222C7
:0D0A4E00E58229F582E5833AF583E49322E1
:100A5B00BC000BBE0029EF8DF084FFADF022E4CC7F
:100A6B00F875F008EF2FFFEE33FEEC33FCEE9DEC48
:100A7B00984005FCEE9DFE0FD5F0E9E4CEFD22ED8E
:100A8B00F8F5F0EE8420D21CFEADF075F008EF2FD8
:100A9B00FFED33FD4007985006D5F0F222C398FDC9
:050AAB000FD5F0EA2266
:0E0AB000C3E49FFFE49EFEE49DFDE49CFC2257
:100C8C00020F71E493A3F8E493A34003F68001F2FE
:100C9C0008DFF48029E493A3F85407240CC8C33369
:100CAC00C4540F4420C8834004F456800146F6DF38
:100CBC00E4800B0102040810204080900D83E47E38
:100CCC00019360BCA3FF543F30E509541FFEE4932D
:100CDC00A360010ECF54C025E060A840B8E493A3F4
:100CEC00FAE493A3F8E493A3C8C582C8CAC583CA1F
:100CFC00F0A3C8C582C8CAC583CADFE9DEE780BED7
:010DED000005
:00000001FF
