:05113E00120ABE80FB57
:100D1C007F0F7E0012102D7B08E4FD7F30120F2513
:100D2C007F057E0012102D7B08E4FD7F30120F250D
:100D3C001210297B08E4FD7F30120F257B08E4FD9F
:100D4C007F20120F251210E27B04E4FD7F28120F86
:100D5C00251210E27B04E4FD7F08120F251210E22D
:100D6C00120F1F1210E27B04E4FD7F06120F2512F6
:100D7C0010E27B04E4FD7F02120F251210E27B04CB
:070D8C00E4FD7F0C020F25BE
:06113800120F1F0210E27D
:1010B900EF75F028A42D24D74480FF7B04E4FD12AA
:0510C9000F250210E2FA
:0A10CE00851582851483120A2EFF97
:0A10D8007B047D01120F250210E2D7
:041029007F017E00C5
:10102D00E4FDFCC3ED9FEC9E5015E4FBFA0BBB00F9
:0F103D00010AEB64F04A70F50DBD00010C80E470
:01104C002281
:060F1F007B04E4FD7F01EC
:100F2500ED3395E04D7004C2B28002D2B2C2B1EB8E
:100F3500FD3395E0FCED64044C701DEF54F0FEE5C7
:100F4500B0540F4EF5B0D2B0C2B0EFC454F0FFE5C7
:0F0F5500B0540F4FF5B080028FB0D2B0C2B022AF
:1010E200D2B7C2B2D2B1D2B020B7FDC2B0C2B12221
:060EC0008B0E8A0F891061
:100EC6007590EF120D1C7D017F011210B9E4F51427
:100ED600F515AB0EAA0FA9101210CE121029051582
:100EE600E51570020514C39410E514940040E37DE3
:100EF600017F021210B9E4F514F515AB11AA12A977
:100F0600131210CE1210290515E51570020514C32B
:080F16009410E514940040E37F
:010F1E0022B0
:07112A0075C35043C31022FE
:0A110E008FC5E5C430E7FBAFC52232
:100DFE00EFB40800503D900E0BF8282873020E2316
:100E0E00020E27020E2B020E2F020E33020E370297
:100E1E000E3B020E3F7EC7801A7EE780167ECF8085
:100E2E00127EEF800E7ED7800A7EF780067EDF80F0
:100E3E00027EFFC291AF0612110EE4FF12110EAD2B
:100E4E0007E4FF12110ED291EF131313541FFF7EFE
:010E5E000093
:010E5F002270
:10106D00AD07AC06E41209ABE4FBFA79A0784012A7
:0C107D000800E4FBFA79807845020909BC
:0711310075C35043C31022F7
:020FD300AE0767
:100FD5007F01EE5403FEC454F04480F51AC2911209
:100FE500110EAF1A12110E8F1BE4FF12110EAD0771
:090FF500D291E51B541FFEEDFF33
:010FFE0022D0
:040FFF00AB07AA068C
:10100300E4F519F5187517A0751640AD07AC06126F
:1010130009ABAB19AA18A917A816120800E4FBFA22
:06102300F97846020909FC
:10104D00E4FDFCC3ED9FEC9E5015E4FBFA0BBB00D9
:0F105D00010AEB64F04A70F50DBD00010C80E450
:01106C002261
:09111800A20292A0A20392A122FE
:09112100A20192A5A20092A422F1
:100F6400A907E964017014D202D203121118D2A2A3
:100F7400C2A37F887E1312104D8020E9640270148E
:100F8400D202D203121118C2A2D2A37F887E1312F6
:100F9400104D8007C202C203121118C2A2C2A322BA
:100E60004D454E55202020202020202020202020CD
:100E70003C2D2020202020202020202020202D3E1E
:100E800054454D503A2020204D41582E543A2020B0
:100E900048554D3A202020204D494E2E483A2020DA
:100EA0004D4F544F52202020202020202020202051
:100EB00056454E54494C41444F522020202020207A
:100D9300015700015E00012100015800022200F505
:100DA300025A0140102720202E20432020202020FB
:100DB3002E2043202020025C00F50224014010373E
:100DC30020202E202520202020202E2025202020FA
:100DD3000126001047202020202020202020202032
:100DE3002020202020015900105F202020202020D7
:0A0DF30020202020202020202020B6
:100FA400AB07AA067C007D64120A5B8F5E7C007D21
:100FB4000AAF03AE02120A5B7C007D0A120A5B8D43
:0F0FC40021AE02AF037C007D0A120A5B8D58221A
:10108900208009055BE55B700E055A22208208E580
:081099005B155B7002155A2281
:1010A1002080090525E525700E052422208208E50A
:0810B10025152570021524220B
:0E10F2002081020559E55964047002F5592267
:0E1100002081020526E52664047002F52622F1
:100ABE0020830C0557E55764057011F557800D20FE
:100ACE0084111557E557F470037557047FC87E00DF
:100ADE0012104DE55770127511FF75120E751370C9
:100AEE007BFF7A0E7960020C86E55764017047121F
:100AFE001089AF23AE22120FA4E55E2430F527E550
:100B0E00212430F528E5582430F52AAF5BAE5A1271
:100B1E000FA4E55E2430F52FE5212430F530E5589D
:100B2E002430F5327511007512007513277BFF7A8C
:100B3E000E7980020C86E557640270471210A1AF41
:100B4E005DAE5C120FA4E55E2430F537E52124304E
:100B5E00F538E5582430F53AAF25AE24120FA4E54A
:100B6E005E2430F53FE5212430F540E5582430F57C
:100B7E00427511007512007513377BFF7A0E79904E
:100B8E00020C86E55764036003020C3C121100E56B
:100B9E0026702575474F754846754946754A20F5A6
:100BAE00117512007513477BFF7A0E79A0120EC0D5
:100BBE00E4FF120F64020C89E5266401702175476B
:100BCE0055754850754920754A20F51175120075F6
:100BDE0013477BFF7A0E79A0120EC07F018025E5A8
:100BEE00266402702775474475484F754957754AF4
:100BFE004EF5117512007513477BFF7A0E79A01210
:100C0E000EC07F02120F64E4F526806FE5266403A2
:100C1E007069754741754855754954754A4FF511B8
:100C2E007512007513477BFF7A0E79A0804AE5573F
:100C3E00640470471210F2AF597E00EF700B7560AE
:100C4E004F7561467562468020EF64014E700B75DC
:100C5E00604F75614E756220800FEF64024E700911
:100C6E007560417561557562547511007512007588
:100C7E00135F7BFF7A0E79B0120EC07F327E0002B8
:020C8E00104D07
:10080000EC4D6011E8497017ED33EC3304600DE4F2
:10081000FCFFFEFD22E933E8330470F8020A1912E6
:1008200009E458046009E4CC2481500628500902E8
:100830000A23284003020A20C0E0EB4A7044B98032
:1008400006D0E0FB020A0FEF4E701CBD8008EBFFE4
:10085000EAFEE9FD80EBE98DF0A4FEE5F00208E98F
:10086000E9CDF9EAFEEBFFEF89F0A4FCE5F0CE89D3
:10087000F0A42EFFE435F0CD89F0A42DFEE435F090
:100880008067EF4E7005BD80D780C3EF8BF0A4ACBE
:10089000F0EE8BF0A42CFCE435F0F8EF8AF0A42CF9
:1008A000E5F038FCE433CB8DF0A42CFCE5F03BF80C
:1008B000EE8AF0A42CFCE5F038F8E433CF89F0A4FC
:1008C0002CFCE5F038CF3400CE89F0A42FFFE5F002
:1008D0003EFEE433C98DF0A42EFEE5F039CD8AF05A
:1008E000A42FFFE5F03EFEE43DFD33D0E0FB5007D2
:1008F0000BBB000F020A23EC2CFCEF33FFEE33FEA0
:06090000ED33FD0209FBCE
:10090600020A23EC5D046005E859047003020A1923
:100916001209E4580460F6EC4860F2EC7004FDFE3F
:10092600FF22C860DB2481C85009C39860025006C4
:10093600020A209850CAF582E9294B4A7005AB8213
:10094600020A0F75F0007C1A7880C3EF9BEE9AEDD1
:1009560099400DC3EF9BFFEE9AFEED99FDE842F03C
:10096600DC23ACF0D0E0FFD0E0FED0E0FDAB82208F
:10097600E7101BEB60BAEC2CFCEF33FFEE33FEED19
:1009860033FD0209FBE803F830E705C0F075F00017
:10099600EF2FFFEE33FEED33FD40B830E7C280AAFD
:1009A60075F020800E75F010800575F0087D007ECC
:1009B600007F003392D530D503120AB0EC334010D5
:1009C600EF33FFEE33FEED33FDEC33FCD5F0ED22D5
:0E09D600E5F0247EA2D513CC92E7CDCEFF2211
:1009E400E9D2E7C933E833F892D5EDD2E7CD33EC59
:0709F40033FC5002B2D522D2
:1009FB00EC30E7100FBF000C0EBE00080DBD00045D
:100A0B000BEB6014A2D5EB13FCED92E7FD2274FF08
:100A1B00FCFDFEFF22E480F8A2D574FF13FC7D8061
:030A2B00E480EF75
:03000000020C905F
:0C0C9000787FE4F6D8FD75816E020CD769
:100A2E00BB010CE58229F582E5833AF583E022507D
:100A3E0006E92582F8E622BBFE06E92582F8E222C7
:0D0A4E00E58229F582E5833AF583E49322E1
:100A5B00BC000BBE0029EF8DF084FFADF022E4CC7F
:100A6B00F875F008EF2FFFEE33FEEC33FCEE9DEC48
:100A7B00984005FCEE9DFE0FD5F0E9E4CEFD22ED8E
:100A8B00F8F5F0EE8420D21CFEADF075F008EF2FD8
:100A9B00FFED33FD4007985006D5F0F222C398FDC9
:050AAB000FD5F0EA2266
:0E0AB000C3E49FFFE49EFEE49DFDE49CFC2257
:100C9C0002113EE493A3F8E493A34003F68001F21F
:100CAC0008DFF48029E493A3F85407240CC8C33359
:100CBC00C4540F4420C8834004F456800146F6DF28
:100CCC00E4800B0102040810204080900D93E47E18
:100CDC00019360BCA3FF543F30E509541FFEE4931D
:100CEC00A360010ECF54C025E060A840B8E493A3E4
:100CFC00FAE493A3F8E493A3C8C582C8CAC583CA0F
:100D0C00F0A3C8C582C8CAC583CADFE9DEE780BEC6
:010DFD0000F5
:00000001FF
